{
  "contractName": "Splitter",
  "abi": [
    {
      "constant": true,
      "inputs": [
        {
          "name": "",
          "type": "address"
        }
      ],
      "name": "balances",
      "outputs": [
        {
          "name": "",
          "type": "uint256"
        }
      ],
      "payable": false,
      "stateMutability": "view",
      "type": "function"
    },
    {
      "constant": true,
      "inputs": [],
      "name": "owner",
      "outputs": [
        {
          "name": "",
          "type": "address"
        }
      ],
      "payable": false,
      "stateMutability": "view",
      "type": "function"
    },
    {
      "inputs": [],
      "payable": true,
      "stateMutability": "payable",
      "type": "constructor"
    },
    {
      "constant": false,
      "inputs": [
        {
          "name": "bob",
          "type": "address"
        },
        {
          "name": "carol",
          "type": "address"
        }
      ],
      "name": "SplitInHalf",
      "outputs": [],
      "payable": true,
      "stateMutability": "payable",
      "type": "function"
    },
    {
      "constant": false,
      "inputs": [],
      "name": "withdraw",
      "outputs": [],
      "payable": false,
      "stateMutability": "nonpayable",
      "type": "function"
    },
    {
      "constant": false,
      "inputs": [],
      "name": "kill",
      "outputs": [],
      "payable": false,
      "stateMutability": "nonpayable",
      "type": "function"
    }
  ],
  "bytecode": "0x6080604052336000806101000a81548173ffffffffffffffffffffffffffffffffffffffff021916908373ffffffffffffffffffffffffffffffffffffffff1602179055506106f6806100536000396000f3fe60806040526004361061006d576000357c0100000000000000000000000000000000000000000000000000000000900463ffffffff16806327e235e3146100725780633ccfd60b146100d757806341c0e1b5146100ee5780638da5cb5b14610105578063c94813911461015c575b600080fd5b34801561007e57600080fd5b506100c16004803603602081101561009557600080fd5b81019080803573ffffffffffffffffffffffffffffffffffffffff1690602001909291905050506101c0565b6040518082815260200191505060405180910390f35b3480156100e357600080fd5b506100ec6101d8565b005b3480156100fa57600080fd5b506101036102ab565b005b34801561011157600080fd5b5061011a61033c565b604051808273ffffffffffffffffffffffffffffffffffffffff1673ffffffffffffffffffffffffffffffffffffffff16815260200191505060405180910390f35b6101be6004803603604081101561017257600080fd5b81019080803573ffffffffffffffffffffffffffffffffffffffff169060200190929190803573ffffffffffffffffffffffffffffffffffffffff169060200190929190505050610361565b005b60016020528060005260406000206000915090505481565b6000600160003373ffffffffffffffffffffffffffffffffffffffff1673ffffffffffffffffffffffffffffffffffffffff1681526020019081526020016000205490506000600160003373ffffffffffffffffffffffffffffffffffffffff1673ffffffffffffffffffffffffffffffffffffffff168152602001908152602001600020819055503373ffffffffffffffffffffffffffffffffffffffff166108fc829081150290604051600060405180830381858888f193505050501580156102a7573d6000803e3d6000fd5b5050565b6000809054906101000a900473ffffffffffffffffffffffffffffffffffffffff1673ffffffffffffffffffffffffffffffffffffffff163373ffffffffffffffffffffffffffffffffffffffff16141561033a576000809054906101000a900473ffffffffffffffffffffffffffffffffffffffff1673ffffffffffffffffffffffffffffffffffffffff16ff5b565b6000809054906101000a900473ffffffffffffffffffffffffffffffffffffffff1681565b600073ffffffffffffffffffffffffffffffffffffffff168273ffffffffffffffffffffffffffffffffffffffff16141580156103cb5750600073ffffffffffffffffffffffffffffffffffffffff168173ffffffffffffffffffffffffffffffffffffffff1614155b1515610465576040517f08c379a00000000000000000000000000000000000000000000000000000000081526004018080602001828103825260248152602001807f546f2061766f69642077617374696e6720736f6d652070726563696f7573206581526020017f746865720000000000000000000000000000000000000000000000000000000081525060400191505060405180910390fd5b6000341115156104dd576040517f08c379a00000000000000000000000000000000000000000000000000000000081526004018080602001828103825260108152602001807f41766f6964696e672074726f75626c650000000000000000000000000000000081525060200191505060405180910390fd5b6105426104f46002346105ad90919063ffffffff16565b600160008473ffffffffffffffffffffffffffffffffffffffff1673ffffffffffffffffffffffffffffffffffffffff1681526020019081526020016000205461064090919063ffffffff16565b506105a861055a6002346105ad90919063ffffffff16565b600160008573ffffffffffffffffffffffffffffffffffffffff1673ffffffffffffffffffffffffffffffffffffffff1681526020019081526020016000205461064090919063ffffffff16565b505050565b60008082111515610626576040517f08c379a000000000000000000000000000000000000000000000000000000000815260040180806020018281038252601a8152602001807f536166654d6174683a206469766973696f6e206279207a65726f00000000000081525060200191505060405180910390fd5b6000828481151561063357fe5b0490508091505092915050565b60008082840190508381101515156106c0576040517f08c379a000000000000000000000000000000000000000000000000000000000815260040180806020018281038252601b8152602001807f536166654d6174683a206164646974696f6e206f766572666c6f77000000000081525060200191505060405180910390fd5b809150509291505056fea165627a7a7230582076f869ff355a39b36fdbc20461a8260c85a3cafe6873a2910686cc57c95a448c0029",
  "source": "pragma solidity ^0.5.0;\r\n\r\n///@title A splitter smart contract\r\n///@author Adil Abed\r\n///@notice This is an educational assignment.Smart contract might contain severe security bugs\r\n\r\n\r\n\r\nimport \"openzeppelin-solidity/contracts/math/SafeMath.sol\";\r\n\r\ncontract Splitter {\r\n    using SafeMath for uint256;\r\n\r\n    address payable public owner;\r\n    mapping (address => uint) public balances;\r\n\r\n    constructor() payable public {\r\n        owner = msg.sender;\r\n    }\r\n    //  Alice use this function to split the sent Amount between futur recipients\r\n    //No direct transfers of ether are made. Balances are updated. Bob & Carol can claim the ether via the withdraw function.\r\n    function SplitInHalf(address bob, address carol) public payable {\r\n        require(bob != address(0x0) && carol != address(0x0), \"To avoid wasting some precious ether\");\r\n        require(msg.value > 0, \"Avoiding trouble\");\r\n\r\n        balances[carol].add(msg.value.div(2));\r\n        balances[bob].add(msg.value.div(2));\r\n    }\r\n\r\n    // Bob & Carol can use this function to claim their payments\r\n    function withdraw() public  {\r\n        uint withdrawnAmount = balances[msg.sender];\r\n\r\n        balances[msg.sender] = 0;\r\n        msg.sender.transfer(withdrawnAmount);\r\n\r\n    }\r\n\r\n    // Kill Switch\r\n    function kill() public {\r\n        if(msg.sender == owner) selfdestruct(owner);\r\n    }\r\n\r\n\r\n}\r\n",
  "sourcePath": "/home/vagrant/DAPPS/splitter/contracts/Splitter.sol",
  "compiler": {
    "name": "solc",
    "version": "0.5.0+commit.1d4f565a.Emscripten.clang"
  },
  "schemaVersion": "3.0.3",
  "updatedAt": "2019-07-06T17:07:39.926Z",
  "devdoc": {
    "methods": {}
  },
  "userdoc": {
    "methods": {}
  }
}